{
  "_format": "hh-sol-artifact-1",
  "contractName": "OlympusGods",
  "sourceName": "contracts/OlympusGods.sol",
  "abi": [
    {
      "inputs": [],
      "stateMutability": "nonpayable",
      "type": "constructor"
    },
    {
      "anonymous": false,
      "inputs": [
        {
          "indexed": true,
          "internalType": "address",
          "name": "owner",
          "type": "address"
        },
        {
          "indexed": true,
          "internalType": "address",
          "name": "approved",
          "type": "address"
        },
        {
          "indexed": true,
          "internalType": "uint256",
          "name": "tokenId",
          "type": "uint256"
        }
      ],
      "name": "Approval",
      "type": "event"
    },
    {
      "anonymous": false,
      "inputs": [
        {
          "indexed": true,
          "internalType": "address",
          "name": "owner",
          "type": "address"
        },
        {
          "indexed": true,
          "internalType": "address",
          "name": "operator",
          "type": "address"
        },
        {
          "indexed": false,
          "internalType": "bool",
          "name": "approved",
          "type": "bool"
        }
      ],
      "name": "ApprovalForAll",
      "type": "event"
    },
    {
      "anonymous": false,
      "inputs": [
        {
          "indexed": false,
          "internalType": "address",
          "name": "owner",
          "type": "address"
        }
      ],
      "name": "OwnershipTransferred",
      "type": "event"
    },
    {
      "anonymous": false,
      "inputs": [
        {
          "indexed": true,
          "internalType": "address",
          "name": "from",
          "type": "address"
        },
        {
          "indexed": true,
          "internalType": "address",
          "name": "to",
          "type": "address"
        },
        {
          "indexed": true,
          "internalType": "uint256",
          "name": "tokenId",
          "type": "uint256"
        }
      ],
      "name": "Transfer",
      "type": "event"
    },
    {
      "inputs": [
        {
          "internalType": "address",
          "name": "to",
          "type": "address"
        },
        {
          "internalType": "uint256",
          "name": "tokenId",
          "type": "uint256"
        }
      ],
      "name": "approve",
      "outputs": [],
      "stateMutability": "nonpayable",
      "type": "function"
    },
    {
      "inputs": [
        {
          "internalType": "address",
          "name": "adr",
          "type": "address"
        }
      ],
      "name": "authorize",
      "outputs": [],
      "stateMutability": "nonpayable",
      "type": "function"
    },
    {
      "inputs": [
        {
          "internalType": "address",
          "name": "owner",
          "type": "address"
        }
      ],
      "name": "balanceOf",
      "outputs": [
        {
          "internalType": "uint256",
          "name": "",
          "type": "uint256"
        }
      ],
      "stateMutability": "view",
      "type": "function"
    },
    {
      "inputs": [
        {
          "internalType": "uint256",
          "name": "tokenId",
          "type": "uint256"
        }
      ],
      "name": "getApproved",
      "outputs": [
        {
          "internalType": "address",
          "name": "",
          "type": "address"
        }
      ],
      "stateMutability": "view",
      "type": "function"
    },
    {
      "inputs": [],
      "name": "getCurrentPrice",
      "outputs": [
        {
          "internalType": "uint256",
          "name": "",
          "type": "uint256"
        }
      ],
      "stateMutability": "view",
      "type": "function"
    },
    {
      "inputs": [],
      "name": "getCurrentTokenPrice",
      "outputs": [
        {
          "internalType": "uint256",
          "name": "",
          "type": "uint256"
        }
      ],
      "stateMutability": "view",
      "type": "function"
    },
    {
      "inputs": [
        {
          "internalType": "address",
          "name": "owner",
          "type": "address"
        },
        {
          "internalType": "address",
          "name": "operator",
          "type": "address"
        }
      ],
      "name": "isApprovedForAll",
      "outputs": [
        {
          "internalType": "bool",
          "name": "",
          "type": "bool"
        }
      ],
      "stateMutability": "view",
      "type": "function"
    },
    {
      "inputs": [
        {
          "internalType": "address",
          "name": "adr",
          "type": "address"
        }
      ],
      "name": "isAuthorized",
      "outputs": [
        {
          "internalType": "bool",
          "name": "",
          "type": "bool"
        }
      ],
      "stateMutability": "view",
      "type": "function"
    },
    {
      "inputs": [
        {
          "internalType": "address",
          "name": "account",
          "type": "address"
        }
      ],
      "name": "isOwner",
      "outputs": [
        {
          "internalType": "bool",
          "name": "",
          "type": "bool"
        }
      ],
      "stateMutability": "view",
      "type": "function"
    },
    {
      "inputs": [],
      "name": "max",
      "outputs": [
        {
          "internalType": "uint256",
          "name": "",
          "type": "uint256"
        }
      ],
      "stateMutability": "view",
      "type": "function"
    },
    {
      "inputs": [],
      "name": "maxCards",
      "outputs": [
        {
          "internalType": "uint256",
          "name": "",
          "type": "uint256"
        }
      ],
      "stateMutability": "view",
      "type": "function"
    },
    {
      "inputs": [
        {
          "internalType": "uint256",
          "name": "mints",
          "type": "uint256"
        }
      ],
      "name": "mintNFT",
      "outputs": [],
      "stateMutability": "payable",
      "type": "function"
    },
    {
      "inputs": [
        {
          "internalType": "uint256",
          "name": "mints",
          "type": "uint256"
        }
      ],
      "name": "mintNFTTokens",
      "outputs": [],
      "stateMutability": "nonpayable",
      "type": "function"
    },
    {
      "inputs": [],
      "name": "mintPrice",
      "outputs": [
        {
          "internalType": "uint256",
          "name": "",
          "type": "uint256"
        }
      ],
      "stateMutability": "view",
      "type": "function"
    },
    {
      "inputs": [],
      "name": "mintTokenPrice",
      "outputs": [
        {
          "internalType": "uint256",
          "name": "",
          "type": "uint256"
        }
      ],
      "stateMutability": "view",
      "type": "function"
    },
    {
      "inputs": [],
      "name": "mintsAtOnce",
      "outputs": [
        {
          "internalType": "uint256",
          "name": "",
          "type": "uint256"
        }
      ],
      "stateMutability": "view",
      "type": "function"
    },
    {
      "inputs": [],
      "name": "name",
      "outputs": [
        {
          "internalType": "string",
          "name": "",
          "type": "string"
        }
      ],
      "stateMutability": "view",
      "type": "function"
    },
    {
      "inputs": [],
      "name": "onlyDevMint",
      "outputs": [
        {
          "internalType": "bool",
          "name": "",
          "type": "bool"
        }
      ],
      "stateMutability": "view",
      "type": "function"
    },
    {
      "inputs": [
        {
          "internalType": "uint256",
          "name": "tokenId",
          "type": "uint256"
        }
      ],
      "name": "ownerOf",
      "outputs": [
        {
          "internalType": "address",
          "name": "",
          "type": "address"
        }
      ],
      "stateMutability": "view",
      "type": "function"
    },
    {
      "inputs": [],
      "name": "recover",
      "outputs": [],
      "stateMutability": "nonpayable",
      "type": "function"
    },
    {
      "inputs": [
        {
          "internalType": "address",
          "name": "from",
          "type": "address"
        },
        {
          "internalType": "address",
          "name": "to",
          "type": "address"
        },
        {
          "internalType": "uint256",
          "name": "tokenId",
          "type": "uint256"
        }
      ],
      "name": "safeTransferFrom",
      "outputs": [],
      "stateMutability": "nonpayable",
      "type": "function"
    },
    {
      "inputs": [
        {
          "internalType": "address",
          "name": "from",
          "type": "address"
        },
        {
          "internalType": "address",
          "name": "to",
          "type": "address"
        },
        {
          "internalType": "uint256",
          "name": "tokenId",
          "type": "uint256"
        },
        {
          "internalType": "bytes",
          "name": "_data",
          "type": "bytes"
        }
      ],
      "name": "safeTransferFrom",
      "outputs": [],
      "stateMutability": "nonpayable",
      "type": "function"
    },
    {
      "inputs": [
        {
          "internalType": "address",
          "name": "operator",
          "type": "address"
        },
        {
          "internalType": "bool",
          "name": "approved",
          "type": "bool"
        }
      ],
      "name": "setApprovalForAll",
      "outputs": [],
      "stateMutability": "nonpayable",
      "type": "function"
    },
    {
      "inputs": [
        {
          "internalType": "string",
          "name": "uri",
          "type": "string"
        }
      ],
      "name": "setBaseUri",
      "outputs": [],
      "stateMutability": "nonpayable",
      "type": "function"
    },
    {
      "inputs": [
        {
          "internalType": "bool",
          "name": "status",
          "type": "bool"
        }
      ],
      "name": "setDevMint",
      "outputs": [],
      "stateMutability": "nonpayable",
      "type": "function"
    },
    {
      "inputs": [
        {
          "internalType": "string",
          "name": "ext",
          "type": "string"
        }
      ],
      "name": "setFileExtension",
      "outputs": [],
      "stateMutability": "nonpayable",
      "type": "function"
    },
    {
      "inputs": [
        {
          "internalType": "uint256",
          "name": "m",
          "type": "uint256"
        }
      ],
      "name": "setMaxCards",
      "outputs": [],
      "stateMutability": "nonpayable",
      "type": "function"
    },
    {
      "inputs": [
        {
          "internalType": "uint16",
          "name": "m",
          "type": "uint16"
        }
      ],
      "name": "setMaxMints",
      "outputs": [],
      "stateMutability": "nonpayable",
      "type": "function"
    },
    {
      "inputs": [
        {
          "internalType": "uint256",
          "name": "price",
          "type": "uint256"
        }
      ],
      "name": "setMintPrice",
      "outputs": [],
      "stateMutability": "nonpayable",
      "type": "function"
    },
    {
      "inputs": [
        {
          "internalType": "uint256",
          "name": "price",
          "type": "uint256"
        }
      ],
      "name": "setMintPriceTokens",
      "outputs": [],
      "stateMutability": "nonpayable",
      "type": "function"
    },
    {
      "inputs": [
        {
          "internalType": "uint256",
          "name": "once",
          "type": "uint256"
        }
      ],
      "name": "setMintsAtOnce",
      "outputs": [],
      "stateMutability": "nonpayable",
      "type": "function"
    },
    {
      "inputs": [
        {
          "internalType": "address",
          "name": "addy",
          "type": "address"
        }
      ],
      "name": "setPayToken",
      "outputs": [],
      "stateMutability": "nonpayable",
      "type": "function"
    },
    {
      "inputs": [
        {
          "internalType": "address",
          "name": "addy",
          "type": "address"
        }
      ],
      "name": "setTokenReceiver",
      "outputs": [],
      "stateMutability": "nonpayable",
      "type": "function"
    },
    {
      "inputs": [
        {
          "internalType": "bytes4",
          "name": "interfaceId",
          "type": "bytes4"
        }
      ],
      "name": "supportsInterface",
      "outputs": [
        {
          "internalType": "bool",
          "name": "",
          "type": "bool"
        }
      ],
      "stateMutability": "view",
      "type": "function"
    },
    {
      "inputs": [],
      "name": "symbol",
      "outputs": [
        {
          "internalType": "string",
          "name": "",
          "type": "string"
        }
      ],
      "stateMutability": "view",
      "type": "function"
    },
    {
      "inputs": [
        {
          "internalType": "uint256",
          "name": "index",
          "type": "uint256"
        }
      ],
      "name": "tokenByIndex",
      "outputs": [
        {
          "internalType": "uint256",
          "name": "",
          "type": "uint256"
        }
      ],
      "stateMutability": "view",
      "type": "function"
    },
    {
      "inputs": [
        {
          "internalType": "address",
          "name": "owner",
          "type": "address"
        },
        {
          "internalType": "uint256",
          "name": "index",
          "type": "uint256"
        }
      ],
      "name": "tokenOfOwnerByIndex",
      "outputs": [
        {
          "internalType": "uint256",
          "name": "",
          "type": "uint256"
        }
      ],
      "stateMutability": "view",
      "type": "function"
    },
    {
      "inputs": [
        {
          "internalType": "uint256",
          "name": "tokenId",
          "type": "uint256"
        }
      ],
      "name": "tokenURI",
      "outputs": [
        {
          "internalType": "string",
          "name": "",
          "type": "string"
        }
      ],
      "stateMutability": "view",
      "type": "function"
    },
    {
      "inputs": [],
      "name": "totalSupply",
      "outputs": [
        {
          "internalType": "uint256",
          "name": "",
          "type": "uint256"
        }
      ],
      "stateMutability": "view",
      "type": "function"
    },
    {
      "inputs": [
        {
          "internalType": "address",
          "name": "from",
          "type": "address"
        },
        {
          "internalType": "address",
          "name": "to",
          "type": "address"
        },
        {
          "internalType": "uint256",
          "name": "tokenId",
          "type": "uint256"
        }
      ],
      "name": "transferFrom",
      "outputs": [],
      "stateMutability": "nonpayable",
      "type": "function"
    },
    {
      "inputs": [
        {
          "internalType": "address payable",
          "name": "adr",
          "type": "address"
        }
      ],
      "name": "transferOwnership",
      "outputs": [],
      "stateMutability": "nonpayable",
      "type": "function"
    },
    {
      "inputs": [
        {
          "internalType": "address",
          "name": "adr",
          "type": "address"
        }
      ],
      "name": "unauthorize",
      "outputs": [],
      "stateMutability": "nonpayable",
      "type": "function"
    }
  ],
  "bytecode": "0x6ddead000000000000000000000000608052600380546001600160a01b0319167318b426813731c144108c6d7faf5ede71a258fd9a1790556000600c556103e8600d55610100604052602c60a08181529062002c2260c03980516200006d91600e9160209091019062000240565b5060408051808201909152600580825264173539b7b760d91b60209092019182526200009c91600f9162000240565b50601080546001600160a01b0319167327a25cae251d58a1eb952bc5b53f6d9511825cb417905566a53380ee0e40006011556702c68af0bb1400006012556013805460ff191660011790556184d06014908155600a6015556016553480156200010457600080fd5b50600080546001600160a01b0319163390811782558152600160208190526040909120805460ff19169091179055620001446301ffc9a760e01b620001e5565b60408051808201909152600e8082526d4f6c796d70757320526f79616c6560901b60209092019182526200017b91600a9162000240565b506040805180820190915260038082526211d3d160ea1b6020909201918252620001a891600b9162000240565b50620001bb6380ac58cd60e01b620001e5565b620001cd634992a2a160e11b620001e5565b620001df63780e9d6360e01b620001e5565b6200035a565b6001600160e01b031980821614156200021b5760405162461bcd60e51b81526004016200021290620002e6565b60405180910390fd5b6001600160e01b0319166000908152600260205260409020805460ff19166001179055565b8280546200024e906200031d565b90600052602060002090601f016020900481019282620002725760008555620002bd565b82601f106200028d57805160ff1916838001178555620002bd565b82800160010185558215620002bd579182015b82811115620002bd578251825591602001919060010190620002a0565b50620002cb929150620002cf565b5090565b5b80821115620002cb5760008155600101620002d0565b6020808252601c908201527f4552433136353a20696e76616c696420696e7465726661636520696400000000604082015260600190565b6002810460018216806200033257607f821691505b602082108114156200035457634e487b7160e01b600052602260045260246000fd5b50919050565b60805160601c6128ac62000376600039600050506128ac6000f3fe6080604052600436106102515760003560e01c80638036d86811610139578063ce746024116100b6578063f2fde38b1161007a578063f2fde38b1461069a578063f4a0a528146106ba578063f751758b146106da578063f87cafb0146106ef578063fd4756091461070f578063fe9fbb801461072457610251565b8063ce74602414610610578063e891e9d114610625578063e985e9c514610645578063eb91d37e14610665578063f0b37c041461067a57610251565b8063a4c57b27116100fd578063a4c57b271461057b578063b6a5d7de1461059b578063b88d4fde146105bb578063bb7945e9146105db578063c87b56dd146105f057610251565b80638036d868146104f3578063926427441461051357806395d89b4114610526578063a0bcfc7f1461053b578063a22cb4651461055b57610251565b80633e463ba2116101d25780636352211e116101965780636352211e1461044957806363e54e8d146104695780636817c76c146104895780636ac5db191461049e5780636f96e99c146104b357806370a08231146104d357610251565b80633e463ba2146103b457806342842e0e146103c957806344d5ce32146103e95780634f6ccce71461040957806359a586471461042957610251565b80630cf85a59116102195780630cf85a591461031f57806318160ddd1461033f57806323b872dd146103545780632f54bf6e146103745780632f745c591461039457610251565b806301ffc9a71461025657806306fdde031461028c578063081812fc146102ae57806308b237b5146102db578063095ea7b3146102fd575b600080fd5b34801561026257600080fd5b50610276610271366004611ef7565b610744565b6040516102839190612152565b60405180910390f35b34801561029857600080fd5b506102a1610767565b604051610283919061215d565b3480156102ba57600080fd5b506102ce6102c9366004611f97565b6107fa565b60405161028391906120c2565b3480156102e757600080fd5b506102f0610846565b604051610283919061268c565b34801561030957600080fd5b5061031d610318366004611e94565b61084c565b005b34801561032b57600080fd5b5061031d61033a366004611ebf565b6108d2565b34801561034b57600080fd5b506102f061090a565b34801561036057600080fd5b5061031d61036f366004611daa565b61091b565b34801561038057600080fd5b5061027661038f366004611d4f565b61094c565b3480156103a057600080fd5b506102f06103af366004611e94565b610960565b3480156103c057600080fd5b5061027661098b565b3480156103d557600080fd5b5061031d6103e4366004611daa565b610994565b3480156103f557600080fd5b5061031d610404366004611f97565b6109af565b34801561041557600080fd5b506102f0610424366004611f97565b6109d9565b34801561043557600080fd5b5061031d610444366004611f97565b6109ef565b34801561045557600080fd5b506102ce610464366004611f97565b610a19565b34801561047557600080fd5b5061031d610484366004611f75565b610a41565b34801561049557600080fd5b506102f0610a6f565b3480156104aa57600080fd5b506102f0610a75565b3480156104bf57600080fd5b5061031d6104ce366004611d4f565b610a7b565b3480156104df57600080fd5b506102f06104ee366004611d4f565b610ac2565b3480156104ff57600080fd5b5061031d61050e366004611f97565b610b0b565b61031d610521366004611f97565b610b35565b34801561053257600080fd5b506102a1610bf9565b34801561054757600080fd5b5061031d610556366004611f2f565b610c08565b34801561056757600080fd5b5061031d610576366004611e67565b610c44565b34801561058757600080fd5b5061031d610596366004611f97565b610cdc565b3480156105a757600080fd5b5061031d6105b6366004611d4f565b610d2e565b3480156105c757600080fd5b5061031d6105d6366004611dea565b610d7a565b3480156105e757600080fd5b506102f0610db2565b3480156105fc57600080fd5b506102a161060b366004611f97565b610db8565b34801561061c57600080fd5b5061031d610def565b34801561063157600080fd5b5061031d610640366004611d4f565b610e4e565b34801561065157600080fd5b50610276610660366004611d72565b610e95565b34801561067157600080fd5b506102f0610ec3565b34801561068657600080fd5b5061031d610695366004611d4f565b610ecd565b3480156106a657600080fd5b5061031d6106b5366004611d4f565b610f13565b3480156106c657600080fd5b5061031d6106d5366004611f97565b610fa8565b3480156106e657600080fd5b506102f0610fd2565b3480156106fb57600080fd5b5061031d61070a366004611f2f565b610fdc565b34801561071b57600080fd5b506102f0611014565b34801561073057600080fd5b5061027661073f366004611d4f565b61101a565b6001600160e01b0319811660009081526002602052604090205460ff165b919050565b6060600a805461077690612760565b80601f01602080910402602001604051908101604052809291908181526020018280546107a290612760565b80156107ef5780601f106107c4576101008083540402835291602001916107ef565b820191906000526020600020905b8154815290600101906020018083116107d257829003601f168201915b505050505090505b90565b600061080582611038565b61082a5760405162461bcd60e51b815260040161082190612433565b60405180910390fd5b506000908152600860205260409020546001600160a01b031690565b60165481565b600061085782610a19565b9050806001600160a01b0316836001600160a01b0316141561088b5760405162461bcd60e51b815260040161082190612547565b336001600160a01b03821614806108a757506108a78133610e95565b6108c35760405162461bcd60e51b815260040161082190612322565b6108cd8383611045565b505050565b6108db3361101a565b6108f75760405162461bcd60e51b815260040161082190612667565b6013805460ff1916911515919091179055565b600061091660056110b3565b905090565b61092533826110be565b6109415760405162461bcd60e51b8152600401610821906125a8565b6108cd838383611143565b6000546001600160a01b0390811691161490565b6001600160a01b03821660009081526004602052604081206109829083611251565b90505b92915050565b60135460ff1681565b6108cd83838360405180602001604052806000815250610d7a565b6109b83361101a565b6109d45760405162461bcd60e51b815260040161082190612667565b601155565b6000806109e760058461125d565b509392505050565b6109f83361101a565b610a145760405162461bcd60e51b815260040161082190612667565b601655565b60006109858260405180606001604052806029815260200161284e6029913960059190611279565b610a4a3361101a565b610a665760405162461bcd60e51b815260040161082190612667565b61ffff16600d55565b60125481565b600d5481565b610a843361101a565b610aa05760405162461bcd60e51b815260040161082190612667565b600380546001600160a01b0319166001600160a01b0392909216919091179055565b60006001600160a01b038216610aea5760405162461bcd60e51b8152600401610821906123b4565b6001600160a01b038216600090815260046020526040902061098590611286565b610b143361101a565b610b305760405162461bcd60e51b815260040161082190612667565b601555565b80610b3e611291565b610b4891906126fe565b3414610b665760405162461bcd60e51b815260040161082190612230565b60105460145460405160009283926001600160a01b03909116913490610b8b906107f7565b600060405180830381858888f193505050503d8060008114610bc9576040519150601f19603f3d011682016040523d82523d6000602084013e610bce565b606091505b509150915081610bf05760405162461bcd60e51b8152600401610821906124c8565b6108cd836112b4565b6060600b805461077690612760565b610c113361101a565b610c2d5760405162461bcd60e51b815260040161082190612667565b8051610c4090600e906020840190611c46565b5050565b6001600160a01b038216331415610c6d5760405162461bcd60e51b81526004016108219061229f565b3360008181526009602090815260408083206001600160a01b038716808552925291829020805460ff191685151517905590519091907f17307eab39ab6107e8899845ad3d59bd9653f200f220920489ca2b5937696c3190610cd0908590612152565b60405180910390a35050565b601054610d069033906001600160a01b031683610cf76113bc565b610d0191906126fe565b6113dc565b610d225760405162461bcd60e51b815260040161082190612630565b610d2b816112b4565b50565b610d373361094c565b610d535760405162461bcd60e51b815260040161082190612588565b6001600160a01b03166000908152600160208190526040909120805460ff19169091179055565b610d8433836110be565b610da05760405162461bcd60e51b8152600401610821906125a8565b610dac8484848461153a565b50505050565b60155481565b6060600e610dc58361156d565b600f604051602001610dd99392919061208f565b6040516020818303038152906040529050919050565b610df83361101a565b610e145760405162461bcd60e51b815260040161082190612667565b600080546040516001600160a01b03909116914780156108fc02929091818181858888f19350505050158015610d2b573d6000803e3d6000fd5b610e573361101a565b610e735760405162461bcd60e51b815260040161082190612667565b601080546001600160a01b0319166001600160a01b0392909216919091179055565b6001600160a01b03918216600090815260096020908152604080832093909416825291909152205460ff1690565b6000610916611291565b610ed63361094c565b610ef25760405162461bcd60e51b815260040161082190612588565b6001600160a01b03166000908152600160205260409020805460ff19169055565b610f1c3361094c565b610f385760405162461bcd60e51b815260040161082190612588565b600080546001600160a01b0319166001600160a01b0383169081178255815260016020819052604091829020805460ff19169091179055517f04dba622d284ed0014ee4b9a6a68386be1a4c08a4913ae272de89199cc68616390610f9d9083906120c2565b60405180910390a150565b610fb13361101a565b610fcd5760405162461bcd60e51b815260040161082190612667565b601255565b60006109166113bc565b610fe53361101a565b6110015760405162461bcd60e51b815260040161082190612667565b8051610c4090600f906020840190611c46565b60115481565b6001600160a01b031660009081526001602052604090205460ff1690565b60006109856005836116b3565b600081815260086020526040902080546001600160a01b0319166001600160a01b038416908117909155819061107a82610a19565b6001600160a01b03167f8c5be1e5ebec7d5bd14f71427d1e84f3dd0314c0f7b2291e5b200ac8c7c3b92560405160405180910390a45050565b6000610985826116bf565b60006110c982611038565b6110e55760405162461bcd60e51b8152600401610821906122d6565b60006110f083610a19565b9050806001600160a01b0316846001600160a01b0316148061112b5750836001600160a01b0316611120846107fa565b6001600160a01b0316145b8061113b575061113b8185610e95565b949350505050565b826001600160a01b031661115682610a19565b6001600160a01b03161461117c5760405162461bcd60e51b81526004016108219061247f565b6001600160a01b0382166111a25760405162461bcd60e51b81526004016108219061225b565b6111ad8383836108cd565b6111b8600082611045565b6001600160a01b03831660009081526004602052604090206111da90826116ca565b506001600160a01b03821660009081526004602052604090206111fd90826116d6565b5061120a600582846116e2565b5080826001600160a01b0316846001600160a01b03167fddf252ad1be2c89b69c2b068fc378daa952ba7f163c4a11628f55a4df523b3ef60405160405180910390a4505050565b600061098283836116f8565b600080808061126c8686611730565b9097909650945050505050565b600061113b84848461175b565b60006109858261179e565b60135460009060ff16156112ad575066038d7ea4c680006107f7565b5060125490565b60135460ff1615806112d057506000546001600160a01b031633145b6112d957600080fd5b601554811115806112f457506000546001600160a01b031633145b6113105760405162461bcd60e51b8152600401610821906121f9565b6016548161131d33610ac2565b61132791906126a1565b11158061133e57506000546001600160a01b031633145b61135a5760405162461bcd60e51b81526004016108219061237f565b60005b81811015610c4057600c54600d5481106113895760405162461bcd60e51b8152600401610821906124ff565b61139333826117a2565b600c80549060006113a38361279b565b91905055505080806113b49061279b565b91505061135d565b60135460009060ff16156113d55750633b9aca006107f7565b5060115490565b60035460405163658d4b7f60e01b815260009185916001600160a01b039091169063658d4b7f90611414908490600190600401612137565b600060405180830381600087803b15801561142e57600080fd5b505af1158015611442573d6000803e3d6000fd5b50506003546040516323b872dd60e01b81526001600160a01b0390911692506323b872dd915061147a908890889088906004016120d6565b602060405180830381600087803b15801561149457600080fd5b505af11580156114a8573d6000803e3d6000fd5b505050506040513d601f19601f820116820180604052508101906114cc9190611edb565b60035460405163658d4b7f60e01b81529193506001600160a01b03169063658d4b7f90611500908490600090600401612137565b600060405180830381600087803b15801561151a57600080fd5b505af115801561152e573d6000803e3d6000fd5b50505050509392505050565b611545848484611143565b611551848484846117bc565b610dac5760405162461bcd60e51b815260040161082190612170565b60608161159257506040805180820190915260018152600360fc1b6020820152610762565b8160005b81156115bc57806115a68161279b565b91506115b59050600a836126de565b9150611596565b60008167ffffffffffffffff8111156115e557634e487b7160e01b600052604160045260246000fd5b6040519080825280601f01601f19166020018201604052801561160f576020820181803683370190505b509050815b85156116aa5761162560018261271d565b90506000611634600a886126de565b61163f90600a6126fe565b611649908861271d565b6116549060306126b9565b905060008160f81b90508084848151811061167f57634e487b7160e01b600052603260045260246000fd5b60200101906001600160f81b031916908160001a9053506116a1600a896126de565b97505050611614565b50949350505050565b60006109828383611894565b600061098582611286565b600061098283836118a0565b600061098283836119bd565b600061113b84846001600160a01b038516611a07565b600082600001828154811061171d57634e487b7160e01b600052603260045260246000fd5b9060005260206000200154905092915050565b6000808061173e8585611251565b600081815260029690960160205260409095205494959350505050565b60008281526002840160205260408120548015158061177f575061177f8585611894565b83906116aa5760405162461bcd60e51b8152600401610821919061215d565b5490565b610c40828260405180602001604052806000815250611a24565b60006117d0846001600160a01b0316611a57565b6117dc5750600161113b565b600061185d63150b7a0260e01b3388878760405160240161180094939291906120fa565b604051602081830303815290604052906001600160e01b0319166020820180516001600160e01b03838183161783525050505060405180606001604052806032815260200161281c603291396001600160a01b0388169190611a90565b90506000818060200190518101906118759190611f13565b6001600160e01b031916630a85bd0160e11b1492505050949350505050565b60006109828383611a9f565b600081815260018301602052604081205480156119b35760006118c460018361271d565b85549091506000906118d89060019061271d565b905081811461195957600086600001828154811061190657634e487b7160e01b600052603260045260246000fd5b906000526020600020015490508087600001848154811061193757634e487b7160e01b600052603260045260246000fd5b6000918252602080832090910192909255918252600188019052604090208390555b855486908061197857634e487b7160e01b600052603160045260246000fd5b600190038181906000526020600020016000905590558560010160008681526020019081526020016000206000905560019350505050610985565b6000915050610985565b60006119c98383611aa7565b6119ff57508154600181810184556000848152602080822090930184905584548482528286019093526040902091909155610985565b506000610985565b6000828152600284016020526040812082905561113b84846116d6565b611a2e8383611abf565b611a3b60008484846117bc565b6108cd5760405162461bcd60e51b815260040161082190612170565b6000813f7fc5d2460186f7233c927e7db2dcc703c0e500b653ca82273b7bfad8045d85a47081811480159061113b575050151592915050565b606061113b8484600085611b83565b600061098283835b60009081526001919091016020526040902054151590565b6001600160a01b038216611ae55760405162461bcd60e51b8152600401610821906123fe565b611aee81611038565b15611b0b5760405162461bcd60e51b8152600401610821906121c2565b611b17600083836108cd565b6001600160a01b0382166000908152600460205260409020611b3990826116d6565b50611b46600582846116e2565b5060405181906001600160a01b038416906000907fddf252ad1be2c89b69c2b068fc378daa952ba7f163c4a11628f55a4df523b3ef908290a45050565b6060611b8e85611a57565b611baa5760405162461bcd60e51b8152600401610821906125f9565b600080866001600160a01b03168587604051611bc69190612073565b60006040518083038185875af1925050503d8060008114611c03576040519150601f19603f3d011682016040523d82523d6000602084013e611c08565b606091505b50915091508115611c1c57915061113b9050565b805115611c2c5780518082602001fd5b8360405162461bcd60e51b8152600401610821919061215d565b828054611c5290612760565b90600052602060002090601f016020900481019282611c745760008555611cba565b82601f10611c8d57805160ff1916838001178555611cba565b82800160010185558215611cba579182015b82811115611cba578251825591602001919060010190611c9f565b50611cc6929150611cca565b5090565b5b80821115611cc65760008155600101611ccb565b600067ffffffffffffffff80841115611cfa57611cfa6127cc565b604051601f8501601f191681016020018281118282101715611d1e57611d1e6127cc565b604052848152915081838501861015611d3657600080fd5b8484602083013760006020868301015250509392505050565b600060208284031215611d60578081fd5b8135611d6b816127e2565b9392505050565b60008060408385031215611d84578081fd5b8235611d8f816127e2565b91506020830135611d9f816127e2565b809150509250929050565b600080600060608486031215611dbe578081fd5b8335611dc9816127e2565b92506020840135611dd9816127e2565b929592945050506040919091013590565b60008060008060808587031215611dff578081fd5b8435611e0a816127e2565b93506020850135611e1a816127e2565b925060408501359150606085013567ffffffffffffffff811115611e3c578182fd5b8501601f81018713611e4c578182fd5b611e5b87823560208401611cdf565b91505092959194509250565b60008060408385031215611e79578182fd5b8235611e84816127e2565b91506020830135611d9f816127f7565b60008060408385031215611ea6578182fd5b8235611eb1816127e2565b946020939093013593505050565b600060208284031215611ed0578081fd5b8135611d6b816127f7565b600060208284031215611eec578081fd5b8151611d6b816127f7565b600060208284031215611f08578081fd5b8135611d6b81612805565b600060208284031215611f24578081fd5b8151611d6b81612805565b600060208284031215611f40578081fd5b813567ffffffffffffffff811115611f56578182fd5b8201601f81018413611f66578182fd5b61113b84823560208401611cdf565b600060208284031215611f86578081fd5b813561ffff81168114611d6b578182fd5b600060208284031215611fa8578081fd5b5035919050565b60008151808452611fc7816020860160208601612734565b601f01601f19169290920160200192915050565b805460009060028104600180831680611ff557607f831692505b602080841082141561201557634e487b7160e01b86526022600452602486fd5b818015612029576001811461203a57612067565b60ff19861689528489019650612067565b61204388612695565b60005b8681101561205f5781548b820152908501908301612046565b505084890196505b50505050505092915050565b60008251612085818460208701612734565b9190910192915050565b600061209b8286611fdb565b84516120ab818360208901612734565b6120b781830186611fdb565b979650505050505050565b6001600160a01b0391909116815260200190565b6001600160a01b039384168152919092166020820152604081019190915260600190565b6001600160a01b038581168252841660208201526040810183905260806060820181905260009061212d90830184611faf565b9695505050505050565b6001600160a01b039290921682521515602082015260400190565b901515815260200190565b6000602082526109826020830184611faf565b60208082526032908201527f4552433732313a207472616e7366657220746f206e6f6e20455243373231526560408201527131b2b4bb32b91034b6b83632b6b2b73a32b960711b606082015260800190565b6020808252601c908201527f4552433732313a20746f6b656e20616c7265616479206d696e74656400000000604082015260600190565b6020808252601c908201527f43616e6e6f74206d696e7420736f206d616e79206174206f6e63652100000000604082015260600190565b6020808252601190820152702bb937b73390383934b1b29039b2b73a1760791b604082015260600190565b60208082526024908201527f4552433732313a207472616e7366657220746f20746865207a65726f206164646040820152637265737360e01b606082015260800190565b60208082526019908201527f4552433732313a20617070726f766520746f2063616c6c657200000000000000604082015260600190565b6020808252602c908201527f4552433732313a206f70657261746f7220717565727920666f72206e6f6e657860408201526b34b9ba32b73a103a37b5b2b760a11b606082015260800190565b60208082526038908201527f4552433732313a20617070726f76652063616c6c6572206973206e6f74206f7760408201527f6e6572206e6f7220617070726f76656420666f7220616c6c0000000000000000606082015260800190565b6020808252818101527f596f752068617665207265616368656420746865206d696e74206c696d69742e604082015260600190565b6020808252602a908201527f4552433732313a2062616c616e636520717565727920666f7220746865207a65604082015269726f206164647265737360b01b606082015260800190565b6020808252818101527f4552433732313a206d696e7420746f20746865207a65726f2061646472657373604082015260600190565b6020808252602c908201527f4552433732313a20617070726f76656420717565727920666f72206e6f6e657860408201526b34b9ba32b73a103a37b5b2b760a11b606082015260800190565b60208082526029908201527f4552433732313a207472616e73666572206f6620746f6b656e2074686174206960408201526839903737ba1037bbb760b91b606082015260800190565b6020808252601e908201527f4661696c656420746f2073656e6420424e4220746f206d756c74697369670000604082015260600190565b60208082526028908201527f546865726520617265206e6f206d6f726520617661696c61626c65204e465473604082015267171029b7b9393c9760c11b606082015260800190565b60208082526021908201527f4552433732313a20617070726f76616c20746f2063757272656e74206f776e656040820152603960f91b606082015260800190565b60208082526006908201526510a7aba722a960d11b604082015260600190565b60208082526031908201527f4552433732313a207472616e736665722063616c6c6572206973206e6f74206f6040820152701ddb995c881b9bdc88185c1c1c9bdd9959607a1b606082015260800190565b6020808252601d908201527f416464726573733a2063616c6c20746f206e6f6e2d636f6e7472616374000000604082015260600190565b6020808252601a908201527f436f756c64206e6f742072656365697665204f4c594d50555321000000000000604082015260600190565b6020808252600b908201526a085055551213d49256915160aa1b604082015260600190565b90815260200190565b60009081526020902090565b600082198211156126b4576126b46127b6565b500190565b600060ff821660ff84168060ff038211156126d6576126d66127b6565b019392505050565b6000826126f957634e487b7160e01b81526012600452602481fd5b500490565b6000816000190483118215151615612718576127186127b6565b500290565b60008282101561272f5761272f6127b6565b500390565b60005b8381101561274f578181015183820152602001612737565b83811115610dac5750506000910152565b60028104600182168061277457607f821691505b6020821081141561279557634e487b7160e01b600052602260045260246000fd5b50919050565b60006000198214156127af576127af6127b6565b5060010190565b634e487b7160e01b600052601160045260246000fd5b634e487b7160e01b600052604160045260246000fd5b6001600160a01b0381168114610d2b57600080fd5b8015158114610d2b57600080fd5b6001600160e01b031981168114610d2b57600080fdfe4552433732313a207472616e7366657220746f206e6f6e20455243373231526563656976657220696d706c656d656e7465724552433732313a206f776e657220717565727920666f72206e6f6e6578697374656e7420746f6b656ea264697066735822122051ecb31147b38ea098fc90b429ee2de922f1a2008fa651733ce3ae8bcfcec9f864736f6c6343000800003368747470733a2f2f706c61792e6f6c796d707573746f6b656e2e696f2f636f6c6c656374696f6e2f676f642f",
  "linkReferences": {},
  "deployedLinkReferences": {}
}