{
  "_format": "hh-sol-artifact-1",
  "contractName": "ERC165",
  "sourceName": "contracts/ERC165.sol",
  "abi": [
    {
      "inputs": [],
      "stateMutability": "nonpayable",
      "type": "constructor"
    },
    {
      "inputs": [
        {
          "internalType": "bytes4",
          "name": "interfaceId",
          "type": "bytes4"
        }
      ],
      "name": "supportsInterface",
      "outputs": [
        {
          "internalType": "bool",
          "name": "",
          "type": "bool"
        }
      ],
      "stateMutability": "view",
      "type": "function"
    }
  ],
  "bytecode": "0x608060405234801561001057600080fd5b506100216301ffc9a760e01b610026565b6100b5565b6001600160e01b031980821614156100595760405162461bcd60e51b81526004016100509061007e565b60405180910390fd5b6001600160e01b0319166000908152602081905260409020805460ff19166001179055565b6020808252601c908201527f4552433136353a20696e76616c696420696e7465726661636520696400000000604082015260600190565b60dd806100c36000396000f3fe6080604052348015600f57600080fd5b506004361060285760003560e01c806301ffc9a714602d575b600080fd5b603c6038366004606f565b6050565b60405160479190609c565b60405180910390f35b6001600160e01b03191660009081526020819052604090205460ff1690565b600060208284031215607f578081fd5b81356001600160e01b0319811681146095578182fd5b9392505050565b90151581526020019056fea26469706673582212200b7d4ea4ae49d8016c0e086cdb2f2768d3fc9e9061001bd374035907e7cdf65c64736f6c63430008000033",
  "linkReferences": {},
  "deployedLinkReferences": {}
}